:020000040001F9
:10F0000020F70020B5F20100BDF20100BFF20100BF
:10F01000C1F20100C3F20100C5F2010000000000CE
:10F0200000000000000000000000000015F20100D8
:10F03000C9F201000000000059F20100CDF2010008
:10F04000B3FB0100CFF20100F1FE0100CFF201009D
:10F05000CFF20100CFF201004DF90100CFF2010023
:10F06000CFF20100CFF20100CFF20100CFF2010098
:10F07000CFF20100CFF20100CFF20100CFF2010088
:10F08000CFF20100C1FB0100CFF20100CFF201007D
:10F09000CFF20100CFF2010041FC0100CFF20100EC
:10F0A000CFF20100CFF20100CFF20100CFF2010058
:10F0B000CFF20100CFF201000000000000000000CC
:10F0C000CFF20100CFF20100CFF20100CFF2010038
:10F0D000CFF20100CFF20100CFF2010000000000EA
:10F0E0000000000000000000000000000000000020
:10F0F0000000000000000000000000000000000010
:10F1000000000000000000000000000000000000FF
:10F1100000000000000000000000000000000000EF
:10F1200000000000000000000000000000000000DF
:10F1300000000000000000000000000000000000CF
:10F1400000000000000000000000000000000000BF
:10F1500000000000000000000000000000000000AF
:10F16000000000000000000000000000000000009F
:10F17000000000000000000000000000000000008F
:10F18000000000000000000000000000000000007F
:10F19000000000000000000000000000000000006F
:10F1A000000000000000000000000000000000005F
:10F1B000000000000000000000000000000000004F
:10F1C000000000000000000000000000000000003F
:10F1D000000000000000000000000000000000002F
:10F1E000000000000000000000000000000000001F
:10F1F000000000000000000000000000000000000F
:10F20000DFF80CD000F0D6FA00480047415D02005C
:10F2100020F70020264B19680868B0E8F04F80F30B
:10F220000988BFF36F8F4FF0000080F3118870479B
:10F23000000000000748006880F3088862B661B6E5
:10F24000BFF34F8FBFF36F8F4FF4F07080F31188CF
:10F2500000DF000000F00100EFF30980BFF36F8FC3
:10F26000134B1A681EF0100F08BF20ED108A20E91A
:10F27000F04F106008B44FF0200080F31188BFF306
:10F280004F8FBFF36F8F0DF0B3F94FF0000080F395
:10F29000118808BC19680868B0E8F04F1EF0100F1C
:10F2A00008BFB0EC108A80F30988BFF36F8F7047F6
:10F2B000502000200648804706480047FEE7FEE74A
:10F2C000FEE7FEE7FEE7FEE7FEE7FEE7FEE7FEE716
:10F2D00089FC010001F201000048704708D80200D3
:10F2E00040EA01039B0703D009E008C9121F08C0C8
:10F2F000042AFAD203E011F8013B00F8013B521E48
:10F30000F9D27047D2B201E000F8012B491EFBD2BE
:10F3100070470022F6E710B513460A460446194620
:10F32000FFF7F0FF204610BD10B5044604E00B784F
:10F3300000F8013B03B1491C521EF8D2204610BD13
:10F34000421C10F8011B0029FBD1801A704710B530
:10F35000002200E0521C835C8C5CA34201D1002B94
:10F36000F8D1D8B2E1B2401A10BD30B50446002041
:10F37000034600E05B1C934203D2E05CCD5C401B83
:10F38000F8D030BD034611F8012B00F8012B002AFC
:10F39000F9D11846704730B505460020034600E015
:10F3A0005B1C934205D2EC5CC85C201A01D1002C96
:10F3B000F6D130BD30B50B46014600202022012495
:10F3C00009E021FA02F59D4205D303FA02F5491B33
:10F3D00004FA02F52844151EA2F10102F1DC30BD49
:10F3E0002DE9F05F0546002092469B46884606467A
:10F3F000814640241BE0284641464746224600F00D
:10F40000FAF953465A46C01A914110D3114618468C
:10F41000224600F0E1F92D1A67EB01084F4622461B
:10F420000120002100F0D8F917EB00094E41201E01
:10F43000A4F10104DFDC484631462A464346BDE8D4
:10F44000F09F2DE9FE4F804681EA0300C00F0C4675
:10F45000009021F0004123F00045B8EB0200A941E3
:10F4600005D24046214690461C460B46024623F0F4
:10F470000040104347D0270DC7F30A00C3F30A51D9
:10F480000290401A019040286BDAC3F3130040F455
:10F49000801B0098924620B10023D2EB030A63EB55
:10F4A0000B0B01985946C0F14002504600F094F908
:10F4B00006460D4650465946019A00F0ACF910EB4D
:10F4C00008006141002487EA115284EAE7731A4375
:10F4D00040D0009A62B3019A012A4FEA075215DC24
:10F4E000001B61EB02014FF0004202EA0752CDE936
:10F4F0000042001C41F5801132462B4600F0ACF969
:10F5000003B0BDE8F08F40462146F9E7001B61EBF0
:10F510000201001C41F5801300185B412018A2F580
:10F52000001747EB030140EAD570B6196D4111E0B1
:10F530006D084FEA360645EAC0754FEA0752001BD0
:10F5400061EB0201001C41F5801149084FEA3000CF
:10F550000019514132462B4603B0BDE8F04F00F090
:10F560006CB90098012240000023D0EB020263EB4B
:10F57000E073009821464FEAE074B8EB000061EBBD
:10F580000401E9E783F000435BE781F0004158E7BD
:10F590002DE9FE4F81EA030404F0004421F000410C
:10F5A00000944FF0000B23F0004350EA01045ED0BA
:10F5B00052EA03045BD0C3F30A54C1F30A552C4446
:10F5C000A4F2F3340194A0FB0254C1F3130141F4FB
:10F5D0008011C3F3130343F4801301FB024400FBC7
:10F5E000034E840A970A44EA815447EA8357A4FBEE
:10F5F000076802958D0A05FB07854FEA932C04FBEB
:10F600000C542705029D4FEA065847EA1637B5EB1A
:10F6100008056EEB070C870E920E47EA811742EA47
:10F620008312A7FB0201B6EB0B0164EB00042B0D68
:10F6300043EA0C335E1844EB1C50DA465146E7FBB4
:10F640000201C5F313044FEA0B3343EA14534FEAA4
:10F650000432019C43EA0603A4F10C040294009CCA
:10F66000CDE900B400F0F8F803B0BDE8F08F002059
:10F670000146F9E72DE9F04D81EA030404F0004B5F
:10F6800021F0004514464FF0000A23F0004150EAF3
:10F69000050220D054EA01021DD0C5F30A570246E4
:10F6A000C5F31303C1F31300C1F30A5640F48015E8
:10F6B00043F48013A7EB0608101BD64608F2FD386A
:10F6C00073EB050002D308F1010801E092185B41D9
:10F6D000B8F1000F03DA00200146BDE8F08D0020EC
:10F6E0004FF48011064684460EE0171B73EB0507A6
:10F6F00005D3121B63EB050306434CEA010C4908D2
:10F700004FEA300092185B4150EA0107EDD152EA0E
:10F71000030012D082EA040083EA0501084305D001
:10F72000101BAB4106D20122002306E000224FF05D
:10F73000004302E06FF0010253101AEB06004CEB9D
:10F74000085110EB0A0041EB0B01BDE8F04D00F051
:10F7500074B8C1F30A52C1F3130140F2FF3341F40C
:10F7600080119A4202DA00200146704740F233438A
:10F770009A42A2F2334202DC524200F03CB800F05E
:10F780002BB8000030B5041E71F1000404DB4FF00B
:10F790000044404264EB0101141E73F1000405DBD8
:10F7A0001C464FF00043524263EB0403994208BFEA
:10F7B000904230BD064C074D06E0E06840F0010382
:10F7C00094E8070098471034AC42F6D3FFF71CFDCD
:10F7D00024DB020044DB0200202A04DB203A00FA8A
:10F7E00002F1002070479140C2F1200320FA03F398
:10F7F000194390407047202A04DB203A21FA02F096
:10F800000021704721FA02F3D040C2F1200291405A
:10F81000084319467047202A06DBCB17203A41FAE5
:10F8200002F043EAE07306E041FA02F3D040C2F18D
:10F830002002914008431946704710B5141E73F119
:10F84000000408DA401C41F1000192185B411A43A0
:10F8500001D120F0010010BD2DE9F04D92469B46EC
:10F8600011B1B1FA81F202E0B0FA80F22032904692
:10F87000FFF7B2FF04460F4640EA0A0041EA0B01D7
:10F8800053465A46084313D0114653EA010019D093
:10F89000C8F140025046FFF7AEFF05460E465046FF
:10F8A00059464246FFF798FF084305D0012004E07F
:10F8B00020463946BDE8F08D0020054346EAE07653
:10F8C0002C4337430A986305E40AA0EB08000022A2
:10F8D000FD0A44EA47540A3002D500200146E9E710
:10F8E000010510196941DDE9084500196941BDE8C4
:10F8F000F04DA2E770B58C1810F8015B15F0070306
:10F9000001D110F8013B2A1106D110F8012B03E0B8
:10F9100010F8016B01F8016B5B1EF9D12B0705D4C0
:10F920000023521E0DD401F8013BFAE710F8013B09
:10F93000CB1A921C03E013F8015B01F8015B521E25
:10F94000F9D5A142D8D3002070BD00002DE9F04FB9
:10F9500089B04FF00008002008904FF480700790A5
:10F960000126002413E0079807F098FB48B100BF78
:10F9700081480068304020B1079807F081FB48EAD1
:10F98000060876000798001D80B20790641C082CBA
:10F99000E9D34FF4BE7007F081FB50B14FF4BE7055
:10F9A00007F06EFB48F0004808AA0121002007F08C
:10F9B0004DFB08F0FF0000B3012600241BE006EA1F
:10F9C0000800B0B100BF6D4850F82400C0F3042017
:10F9D000074600BF694850F82400C0F30140814643
:10F9E000204602F0E5FF054615B149463846A847CE
:10F9F00000BF7600641C082CE1D308F0004000280A
:10FA00007ED0002006900590002505E04FF0FF30E5
:10FA100004A941F825006D1C002DF7D000BF00207F
:10FA2000069000246FE05648005D0390039820F094
:10FA3000C00753480057401C002863D004A938462B
:10FA400006F008FC00285DD003984FEA901A38466B
:10FA500002F0B6FF814602F0ABFF0290029810B9A7
:10FA6000BAF1030F4BD1BAF1030F11D1394605A8F2
:10FA70000246CB0801F0070112F803C04FF0010E57
:10FA80000EFA01FE4CEA0E0C02F803C000BF00BFE4
:10FA900000BF00BF4FF0A041084600F5E06151F8FB
:10FAA0002710C1F3014900BF08A9384606F0D2FB70
:10FAB0008346BBF1000F02D0B9F1020F05D0BBF1B4
:10FAC000000F1BD1B9F1030F18D1BAF1030F0FD1F9
:10FAD000B9F1020F01D1032000E002200190384665
:10FAE000019907F08EFA0698401CC0B2069000BF3C
:10FAF000029818B151463846029A904700BF00E07C
:10FB000036E000BF641C042C8DD3069858B301273F
:10FB100003AA0121002007F099FA00250AE003A8B2
:10FB200050F8250008A951F82510884201D0002777
:10FB300002E06D1C002DF2D000BF17B1002006902E
:10FB400010E000250CE003A850F8250008A941F8B2
:10FB5000250005A850F8250004A941F825006D1CD2
:10FB6000002DF0D000BF069800287FF458AF00BFEA
:10FB700009B0BDE8F08F000004630040106500404C
:10FB8000C8C6002000F01F0201219140024A43092B
:10FB900042F823107047000080E100E000F01F02EF
:10FBA000012191404209920002F1E022C2F80011C5
:10FBB000704710B506F096FE06F056FF10BD000027
:10FBC0002DE9F0414FF4A0711A4807F0C8FA00245B
:10FBD00000BF00BFEFF311800546202000F014FAAB
:10FBE00000BF2E4600BF1448006807464FF48071DE
:10FBF000104807F0B4FA0DF0C3FA381A20F07F4528
:10FC0000012D04D90DF0ACFA022800D0012502E044
:10FC10000DF0C2FA0443281EA5F10105F8D124B164
:10FC20004FF080500549086040BF304600F0ECF9C5
:10FC3000BDE8F081001001400415014004ED00E032
:10FC400070B50B48006880B10948006880470446D9
:10FC500000BF25463DB100BF064A40F2D1112846FB
:10FC600001F03AF800BF00BF01E005F035FC70BDBF
:10FC7000E020002054D90200014802490860704782
:10FC80000090D0039021002010B503F01BFE28B196
:10FC900088480088C0F304208749086003F03CFED0
:10FCA00010B186488649486703F04EFE30B181485E
:10FCB000E0380068C0F342308249086003F06EFE0D
:10FCC00028B18148006820F080707F49086003F007
:10FCD0007DFE48B100207D4908604FF08041C1F8A9
:10FCE00010017849091F086003F09AFE18B103203B
:10FCF00074496431086003F0ABFE68B105207449B3
:10FD0000086001207249783108600020704908318C
:10FD100008603F20091F086003F0B2FE002855D09C
:10FD20006448E03000686B4908606248E43000686D
:10FD3000091D08605F48E8300068091D08605D48DB
:10FD4000EC300068091D08605A48F0300068091D51
:10FD500008605848F4300068091D08605548F830BC
:10FD600000685C49203108605248FC300068091D79
:10FD7000086059480068091D08605748001D006860
:10FD8000091D0860544808300068091D0860524881
:10FD90000C300068091D08604F48103000684D495C
:10FDA000403108604C4814300068091D08604A481A
:10FDB00018300068091D086047481C300068091D9C
:10FDC0000860454820300068091D086003F050FDB8
:10FDD00030B13848CC38006800F04F003F49086027
:10FDE00039487438006840F4700037497439086045
:10FDF00000BF00BF00BFBFF34F8F00BF00BF00BFF9
:10FE000000BF00BF00BFBFF36F8F00BF00BF00BFC8
:10FE10003348006800F0004028B93148001D0068F0
:10FE200000F00040F0B301202E49086000BF2E48CA
:10FE300000680028FBD015202949086000BF2A4827
:10FE400000680028FBD015212548001D016000BF77
:10FE5000254800680028FBD000202249086000BF28
:10FE6000214800680028FBD000BF00BF00BF00BFD2
:10FE700000BFBFF34F8F00BF00BF00BF1248F03874
:10FE8000006800F4E06019490843001D0E49F0398C
:10FE9000086000BF00BF00BFBFF34F8F00BF00BFAF
:10FEA00000BF00E002E000BF00BFFDE7FFF7E4FE97
:10FEB00010BD000024030010403501400DF0ADBA24
:10FEC00000C007403C050040FCED00E00C01004094
:10FED0001056004020C5004024040010E40E0040ED
:10FEE0000012001004E5014000E401400000FA05A2
:10FEF00010B50CF071F80748007F20B1054906489D
:10FF00000BF051FE03E0034903480BF0ABFD0CF08E
:10FF10006FF810BDD0C60020002000400FB4054B84
:10FF200010B503A9044A029800F03CF910BC5DF832
:10FF300014FB0000AD420200D82000200FB4084B93
:10FF400010B504A902AA039800F02CF9044602A9EE
:10FF5000002000F0C9FC204610BC5DF814FB000036
:10FF6000E90802007CB5044600201D46164600291B
:10FF70000BD0491ECDE90041044B6A462946304664
:10FF800000F010F9009A002111707CBDD308020026
:10FF900002E008C8121F08C1002AFAD17047704752
:10FFA000002001E001C1121F002AFBD170470000B0
:10FFB0000146202908DA012088400A4A104008B189
:10FFC000012070470020FCE7402909DAA1F1200058
:10FFD000012202FA00F008B10120F2E70020F0E768
:10FFE0000120EEE7FC06FFBD00BFEFF310810846DD
:10FFF00072B6704700BFEFF31081084672B67047C3
:020000040002F8
:10000000C1B281F311887047C1B281F31188704782
:10001000C1B281F311887047C1B281F31188704772
:100020002DE9FF5F82B00021DDE90430020DDDF82B
:1000300040B0034318D044F61050A2F2FF324243BE
:100040001514119801281FD0A5EB0B00401C5FEA86
:10005000000A4FF000064E4FDFF83891B046504688
:1000600015D5CAF1000413E0119801244AA3012810
:1000700001D16FEA0B010298119AC0E90031C0E981
:10008000024206B0BDE8F09FCBF10000DFE7044676
:100090000021404A491842EB0450CDE9001012E01B
:1000A000E00707D032463B4640464946FFF770FA24
:1000B0008046894632463B4610461946FFF768FAA5
:1000C00006460F466410002CEAD1DDE90401DDE9A3
:1000D0000023BAF1000F06DAFFF75AFA42464B4600
:1000E000FFF756FA05E0FFF7C5FA42464B46FFF721
:1000F000C1FA04460E460022284BFFF743FB03D803
:100100004FF0FF30014607E00022254B20463146E4
:10011000FFF797F9FFF71DFB102409E0002C0ADB1D
:100120000A220023FFF75CF9039B30321A55641E44
:1001300050EA0102F2D1641C039AC4F11103144481
:10014000119A012A03D0012208430DD10AE0084385
:1001500004D000204FF0110B119072E7A3EB0B05B8
:100160006D1E0DE05B4504DD4FF0000205F1010559
:1001700004E003DA4FF00002A5F10105002AECD0FB
:1001800002981199C0E90231C0E9004579E7000001
:10019000000014400000F03F300000000000F04379
:1001A0000000E03F2DE9FF4F95B09B46894606468B
:1001B00000250FE2252877D100242746F84A01219F
:1001C000059400E0044316F8013F203B01FA03F0D8
:1001D0001042F7D130782A2811D06FF02F033078F1
:1001E000A0F13002092A16D8059A44F0020402EB65
:1001F000820203EB42021044761C0590EFE759F8A7
:10020000042B0592002A03DA504244F4005405906E
:1002100044F00204761C30782E2816D116F8010F0F
:1002200044F004042A280DD06FF02F023078A0F19A
:100230003003092B09D807EB870302EB4303C718E8
:10024000761CF3E759F8047B761C30786C280FD0C5
:1002500006DC4C2817D068280DD06A2814D104E099
:10026000742810D07A280FD10DE044F400140AE06D
:1002700044F4801401E044F440147278824202D1C4
:1002800004F58014761C761C307866280BD013DCBD
:10029000582877D009DC002875D04528F6D04628A4
:1002A000F4D047281AD19DE118E0632835D064289E
:1002B00079D0652812D195E1702873D008DC6728C1
:1002C000F1D069286FD06E280DD06F2806D1B5E027
:1002D00073282CD0752875D0782874D05A46179971
:1002E00090476D1C75E1C4F30250022809D0032821
:1002F0000DD0D9F8001004280DD00D6009F10409C3
:1003000067E1D9F80010EA17C1E90052F6E7D9F819
:1003100000100D80F2E70D70F0E719F8041B8DF85E
:10032000001000208DF80100EA46012003E059F892
:1003300004AB4FF0FF3061074FF0000102D40DE035
:1003400008F101018846B9420FDA8045F8DB1AF856
:1003500008100029F4D108E008F101018846814223
:10036000FADB1AF808100029F6D105985B46A0EBD5
:10037000080721463846179A00F094FA284400EB03
:10038000080507E04DE029E10DE01AF8010B5A4697
:1003900017999047B8F10108F7D25B4621463846D5
:1003A000179A13E142E00A220092C4F302524FF07E
:1003B000000A022A08D059F804CB032A4FEAEC714C
:1003C0000AD00DE029E02AE009F1070121F0070237
:1003D000F2E802C1914609E00FFA8CFC4FEAEC7199
:1003E000042A03D14FFA8CFC4FEAEC71002907DA9A
:1003F0000A460021DCF1000C61EB02012D2202E033
:10040000220504D52B228DF80420012203E0E20707
:1004100001D02022F7E7904659E00A2102E010229D
:100420000DE010214FF0000A00910BE010224FF078
:10043000000A44F004040827009203E008224FF069
:10044000000A0092C4F30252022A05D059F804CBE4
:100450000021032A08D009E009F1070121F0070271
:10046000F2E802C1914605E01FFA8CFC042A01D192
:100470000CF0FF0C4FF00008220728D5702806D09A
:10048000009B83F0100353EA0A0305D00EE04022DC
:100490008DF80420012208E05CEA010206D0302237
:1004A0008DF804208DF8050002229046009B83F011
:1004B000080353EA0A030AD15CEA010201D1620788
:1004C00005D530228DF804204FF001087F1E5828F2
:1004D00004D034A003900EA802900DE036A0F9E7F6
:1004E00053466046009AFEF77BFF84460398825C81
:1004F0000298401E029002705CEA0100F0D102985E
:1005000006A9081A00F1200A600702D524F48034F5
:1005100000E00127574502DDA7EB0A0000E00020BC
:1005200000EB0A01009005984144401A0590E00351
:1005300006D45B462146179A059800F0B3F90544A6
:10054000002706E001A85A46C05D179990476D1C28
:100550007F1C4745F6DBE0030CD55B462146179A26
:10056000059800F09FF9054404E030205A46179999
:1005700090476D1C0099481E00900029F5DC08E0AA
:10058000029802995A460078491C0291179990479F
:100590006D1CBAF10001AAF1010AF1DC65E100006D
:1005A0000928010030313233343536373839616249
:1005B000636465660000000030313233343536370D
:1005C00038394142434445460000000000F058F9E4
:1005D0000544761C307800287FF4ECAD19B028462D
:1005E000BDE8F08F620700D4062709F1070222F068
:1005F000070CFCE80223E14603F000485FEA080C20
:1006000002D00FF2702C0DE05FEA045C02D50FF20D
:10061000682C07E05FEAC47C02D00FF2602C01E096
:10062000AFF2700C4FF0FF3823F00043CDF850C00C
:1006300065280CD006DC452809D046281DD047285F
:100640003DD13DE0662818D067287ED138E00021F2
:10065000112F01DB112000E0781CCDE9000106A973
:100660000EA8FFF7DDFCDDE90F010E9A03910021D2
:10067000009207F1010A04914DE04FF0004000970D
:10068000CDE9011006A90EA8FFF7CAFCDDE90F02AB
:1006900003920E9B11990022DDF80CA000930492A6
:1006A00011B9791C00EB010AB7EB0A0004D4C0F1C0
:1006B000FF3007F1010A0490AAEB0700019044E023
:1006C000012F00DA01270021112F01DD112000E0A8
:1006D0003846CDE9000106A90EA8FFF7A1FCDDE927
:1006E0000F010E9A0391002104910092BA4621074E
:1006F0000CD40399514500DA8A46BAF1010F05DDA1
:10070000009AAAF10101515C302908D0B84202DAFE
:1007100010F1040F06DA0121CDE9011015E0AAF16C
:100720000101E9E7002805DC049901440491AAEBE2
:10073000000102E0411C514500DD8A460499401A3F
:10074000401C01904FF000400290200704D4019813
:10075000504501DBCDF8048000208DF84F00029851
:100760000DF14F07B0F1004F25D02B200E900298CD
:100770004FF0020800280CDA404202902D200E9023
:1007800007E00A210298FEF715FE3031029007F8C3
:10079000011DB8F10001A8F10108F2DC029800285F
:1007A000EFD1791E0E980870307800F0200040F0EC
:1007B000450007F8020D12A8C01B00F107081498A5
:1007C000007800B1012000EB0A01019801EBE07113
:1007D00005984144401A401E0590E00306D45B464C
:1007E0002146179A059800F05DF8054414980078A2
:1007F00018B15A46179990476D1CE00324D55B4603
:100800002146179A059800F04DF805441CE004981D
:10081000002807DBDDE90301884203DD0098405C26
:10082000179901E0179930205A469047049805F12E
:100830000105401C04900198401E019004D12E2017
:100840005A46179990476D1CBAF10001AAF1010AA6
:10085000DDDC05E017F8010B5A46179990476D1C2F
:10086000B8F10001A8F10108F4DC5B462146179AB3
:100870000598ABE62D0000002B00000020000000D2
:100880002DE9F041044600251E461746880404D48D
:1008900005E039462020B0476D1C641EF9D5284676
:1008A000BDE8F0812DE9F041044600251E46904642
:1008B000C80301D5302700E02027880404D505E0CF
:1008C00041463846B0476D1C641EF9D52846BDE840
:1008D000F0814A68002A06D00A68531C0B60107029
:1008E0004868401E486070470A68531C0B601070CF
:1008F000704770B505460C4605B10CB9002070BDB7
:10090000287840082178B0EB510F01D00020F6E79D
:100910000622611C681CFEF728FD08B90120EEE7DD
:100920000020ECE70246002104E0505C08B1012001
:100930007047491C0629F8D30020F9E710B5044692
:100940006CB108480068A04209D806484068A04237
:1009500005D3204604F0FAFE08B1012010BD0020A6
:10096000FCE70000942100202DE9FC410446884664
:100970001646002537880020308094F82D0058B1A5
:100980003A463146404601F028FB054600BF15B106
:100990002846BDE8FC8100BFA07850B13A463146F8
:1009A000404600F0D1FC054600BF0DB12846F0E7F7
:1009B00000BFE07860B1E17848B23B46324641463C
:1009C00003F000FC054600BF0DB12846E1E700BF7B
:1009D000606868B1616891F900003B463246414663
:1009E0000AF08AFF054600BF0DB12846D1E700BFD7
:1009F000208900280EDD43460622022104F108006A
:100A0000CDE900670BF0FEF9054600BF0DB12846A1
:100A1000BFE700BF208A00280EDD434607220321DE
:100A200004F11000CDE900670BF0ECF9054600BFBA
:100A30000DB12846ADE700BF208B00280EDD4346F0
:100A40001522142104F11800CDE900670BF0DAF942
:100A5000054600BF0DB128469BE700BF206A58B18C
:100A60003B4632464146206A02F029FD054600BF5A
:100A70000DB128468DE700BF606A58B13B4632464B
:100A80004146606A05F0D4F9054600BF0DB128461D
:100A90007FE700BF94F82C0000280BDD3B46324670
:100AA000414620460AF0A0F8054600BF0DB1284691
:100AB0006FE700BF207858B13B463246414620469A
:100AC00005F014FB054600BF0DB1284661E700BFE5
:100AD00028465EE770B504461448FFF723FF054635
:100AE000012C06D0022C0BD0032C10D0042C1AD1D0
:100AF00013E00F48407810B10DB1012070BD00BF68
:100B00000B48807810B10DB10220F7E700BF08480C
:100B1000C07808B10320F1E700BF0548007908B1AB
:100B20000420EBE700BF0020E8E70000FE200020E3
:100B3000BCD000200146481C052290FBF2F302FBCA
:100B40001300C0B270470146C87800F0040008B92D
:100B5000072070470020FCE730B599B03C210AA877
:100B6000FEF7D7FB02208DF8280001208DF82A001F
:100B700006208DF82B000320ADF8380012490F91A4
:100B8000202102A8FEF7C5FB01208DF80B004FF4D1
:100B900096700690B420079000200C4B02AA0146E4
:100BA00000900AA800F042FE044600BF25463DB171
:100BB00000BF07A240F2EF11284600F08DF800BFF9
:100BC00000BF19B030BD0000EC1F00203D720200D4
:100BD0002E2E5C736F757263655C4170706C696317
:100BE0006174696F6E5C626C655F746F705F696D74
:100BF000706C656D656E742E6300000070B5032027
:100C000000F012FF044600BF25463DB100BF04A21C
:100C100040F20F11284600F05FF800BF00BF70BD22
:100C20002E2E5C736F757263655C4170706C6963C6
:100C30006174696F6E5C626C655F746F705F696D23
:100C4000706C656D656E742E6300000070B58CB0BD
:100C500004460D461646002005E0C0F10F01615C18
:100C60000DF80010401C1028F7D30D2104A8FEF742
:100C700050FB002005E02A5CC0F10F0304A9CA5410
:100C8000401C0328F7D3684643DF002005E0C0F18D
:100C90000F0208A9895C3154401C0328F7D30CB01B
:100CA00070BD000070B504460D46164603A0FFF760
:100CB00035F904A0FFF732F970BD00004661746198
:100CC0006C0D0A00486974207765616B2068616E5D
:100CD000646C65720D0A0000FEB504460E461546AA
:100CE000B0B2ADF80000019502946A46002144F2CA
:100CF000010000F001F8FEBD2DE9F04105460E4669
:100D000014462F461AA0FFF709F939461EA0FFF72F
:100D100005F93746314623A0FFF700F9274621465B
:100D200027A0FFF7FBF86FF48040284460B101284A
:100D30001BD120880746014628A0FFF7EFF82CA01A
:100D40006168FFF7EBF810E020880746014623A012
:100D5000FFF7E4F826A06168FFF7E0F8A06807460F
:100D6000014628A0FFF7DAF800BF00BFBDE8F08118
:100D70000D0A6170705F6572726F725F7072696E7A
:100D80007428293A0D0A00004661756C7420696464
:100D9000656E7469666965723A2020307825580D51
:100DA0000A00000050726F6772616D20636F756E8C
:100DB0007465723A202020307825580D0A00000012
:100DC0004661756C7420696E666F726D6174696FCF
:100DD0006E3A20307825580D0A0000004C696E6587
:100DE000204E756D6265723A2025750D0A0000006F
:100DF00046696C65204E616D653A20202025730D93
:100E00000A0000004572726F7220436F64653A20D9
:100E100020307825780D0A0070B504460D4620462E
:100E200003F05FF928B12946204603F049F9002074
:100E300070BD0520FCE7034609B90E20704712B1CA
:100E4000501E104008B10920F8E71960501E988024
:100E500000209860D86000BFF0E770B504460D46EA
:100E6000204603F03EF9A188884205D8294620464D
:100E700003F045F9002070BD0420FCE71FB50322F4
:100E8000002101200BF052FE1D4908600846006851
:100E900030B900BF1BA262210420FFF71DFF00BF75
:100EA0000020224A0423CDE9012000930390034649
:100EB0004FF480721EA11F480CF0BEF8012806D026
:100EC00000BF10A26B210420FFF706FF00BF002027
:100ED000194A0323CDE901200093039003464FF400
:100EE000807216A117480CF0A7F8012806D000BFA1
:100EF00004A274210420FFF7EFFE00BF1FBD000015
:100F0000C01F00202E2E5C736F757263655C41708C
:100F1000706C69636174696F6E5C6170705F66723A
:100F2000656572746F732E6300000000D41F00208B
:100F3000626C650061270200D81F00206D65617436
:100F400000000000A95E020070B50546284608F0C2
:100F500027FF0446207B10B1A1682068884770BD38
:100F60002DE9F8430546884616462C684FF00009DF
:100F700006B115B90720BDE8F883207B08B1082029
:100F8000F9E76068D0B9002020606060A060E06090
:100F9000B8F1000F01D1002700E00127A660094841
:100FA00023463A464FF47A71009007A00CF080FA7D
:100FB0006060606820B94FF00E0901E00820DAE7B0
:100FC0004846D8E7490F0200200000002DE9FC4701
:100FD00005460E4617462C46D4F80480B8F1000F9B
:100FE00002D10820BDE8FC87207B002806D04046BF
:100FF0000CF0D6FA002801D00020F3E7276000BFEC
:10100000EFF30580A8B30020019001AB324609211F
:10101000009040460CF08EFA012801D00420E1E750
:101020000CF0B4F88146002001AB4A46062100903E
:1010300040460CF07FFA012801D00420D2E7019845
:10104000B0B100BF4FF080501A49086040BF00BFE8
:1010500000BF00BFBFF34F8F00BF00BF00BF00BF86
:1010600000BF00BFBFF36F8F00BF00BF00BF00BF56
:101070001BE0FFE702200023324604210090404697
:101080000CF058FA012801D00420ABE70CF078F8F6
:101090008146022000234A460121009040460CF080
:1010A00049FA012801D004209CE701202073002088
:1010B00098E7000004ED00E07CB5044625466E6824
:1010C000002E01D108207CBD00BFEFF3058030B3B6
:1010D0000020019001AB02460821009030460CF040
:1010E00029FA012801D00420EDE70198B0B100BF32
:1010F0004FF080501249086040BF00BF00BF00BFE2
:10110000BFF34F8F00BF00BF00BF00BF00BF00BFD5
:10111000BFF36F8F00BF00BF00BF00BF0BE0022016
:1011200000231A460321009030460CF003FA0128F0
:1011300001D00420C7E70020287300BFC3E70000E8
:1011400004ED00E02DE9F0410446104807782146FF
:101150000F48FFF761FE8046A7B100200B490870D9
:1011600001220C490C4805F00DFD054600BF2E4636
:1011700036B100BF09A2D5213046FFF7ADFD00BF53
:1011800000BF00BF4046BDE8F0810000D62000202F
:1011900080D00020D5200020C82000202E2E5C7397
:1011A0006F757263655C53444B5C6C69627261720B
:1011B0006965735C756172745C6170705F75617292
:1011C000745F6669666F2E63000000002DE9F041D0
:1011D00088B004460D46174698462E4807601DB94C
:1011E000072008B0BDE8F081A88882B22A482968A3
:1011F000FFF721FE064600BF0EB13046F1E700BF03
:10120000A88982B22548A968FFF715FE064600BFE7
:101210000EB13046E5E700BF202221496846FEF7BF
:101220005FF860690690207C08B1012000E0002092
:101230008DF814008DF81C80607C08B10E2000E051
:1012400000208DF81500E0680290A06803902068E7
:10125000019060680090134A6946134805F050FCFD
:10126000064600BF0EB13046BBE700BF00200F4965
:1012700008702068401C58B19DF81D0010B90A483C
:1012800005F0EAFC01220A49074805F07BFCA8E7C3
:101290000020A6E7D020002080D0002090D00020A1
:1012A000C8D6020091B90200C8200020D620002034
:1012B000D520002070B5044621460B48FFF7CDFD30
:1012C000054675B9094805F061FE50B90849064858
:1012D000FFF7A2FD28B901220549044805F0A0FD49
:1012E0000546284670BD000090D00020C820002090
:1012F000D420002010B50446204609F057F910BD4F
:1013000070B5044625460E488068B0B1ADB9FEF709
:1013100071FE06460A4800680A49086008484068A5
:101320004FF0E021C1F804010020054988601EB992
:1013300000BF62B600BF00BF00BF00BF70BD0000AD
:10134000F0CE002000E100E0F8B505460C46174657
:101350002088001DB84201D90C20F8BD684679DF0D
:10136000064600BF0EB13046F7E700BF03202188D4
:1013700068542088401C20801920218868542088C7
:10138000401C208020884119BDF800000AF09DFC17
:101390002188084420800020DFE7000070B5054662
:1013A0000C462068401C28B1206805F043FE2068E8
:1013B00005F01BFE6068401C18B10021606805F054
:1013C00007FE28792D4901EB4010007F50B32868B3
:1013D000A169C0F8241500BF617D227D286841EA1B
:1013E0000203C0F86C3500BFD4E90012286805F08C
:1013F0001EFF207D01283FD1A068401C18B10021AC
:10140000A06805F0E5FDE068401C28B1E06805F043
:1014100011FEE06805F0E9FDD4E90221286805F035
:10142000F2FE29E02868A169C0F8241500BF617D9B
:10143000227D286841EA0203C0F86C3500BFD4E978
:101440000012286805F0C6FE207D012814D1A0688E
:10145000401C18B10021A06805F0BAFDE068401CEE
:1014600028B1E06805F0E6FDE06805F0BEFDD4E9CE
:101470000221286805F097FE70BD0000D0C600204C
:1014800030B5A3B01348007800F054FD0546284657
:1014900009F0C0F8D8B101A800F094FC442201A9D9
:1014A00012A8FDF71DFF00240DE013A931F8140068
:1014B0000849097800F04CFD20B113A931F8140057
:1014C00004F04CFB641C1298A042EED800BF23B07D
:1014D00030BD00003621002010B50446637903F0CA
:1014E00003022179208804F0C3FA10BD10B5044628
:1014F000207918B9204600F007F803E02046FFF7EE
:10150000EBFF00BF00BF10BD2DE9F04188B00446DD
:101510000025208800F0E0FC0746208803F01CFF2F
:101520000646A0680790607A06902088002223492A
:10153000097800F021FD17B908B0BDE8F0816079A5
:10154000C0F3800090B10721304606F031FF054618
:10155000BDB108208DF800002088ADF80200ADF87C
:1015600004600295684602F059FB0AE0208814499D
:10157000097800F0EDFC20B1304603F0D7FE80463C
:1015800000BF03208DF80C002088ADF80E006079B4
:10159000C0F380008DF81000A079C0F380018DF8B1
:1015A00011109DF81C108DF812109DF818108DF870
:1015B000131003A802F032FB00BFBDE77621002024
:1015C00078210020F0B591B004460D46207DD8B1B9
:1015D0000020099000BF9DF8240020F00F00401C5F
:1015E0008DF824009DF8240020F0F00010308DF8D4
:1015F000240000BF687B8DF825009DF8260020F0B0
:101600000600801C8DF826001C210AA8FDF781FE2B
:101610009DF8280020F00200801C8DF82800207D15
:1016200008B1012000E000209DF8281060F30411AB
:101630008DF8281000200B900D900E90207D08B1A1
:1016400009A800E000200F900020109000BF0120AA
:101650008DF80E0042F61920ADF80C0000BF0020F6
:101660000290A87B8DF80800E87B8DF809009DF8B2
:101670000A0020F00600801C8DF80A009DF80A0080
:1016800020F008008DF80A009DF80A0020F01000F4
:101690008DF80A009DF80A0020F001008DF80A007C
:1016A000287B0190142104A8FDF733FE03A80490C1
:1016B00002A805900120ADF818000020ADF81A002E
:1016C0000120ADF81C0001A80890A088A31D04AA61
:1016D0000AA9A2DF064616B1304611B0F0BDA868CF
:1016E000002855D000BF01208DF80E0042F60810EA
:1016F000ADF80C0000BF00200290287C8DF8080097
:1017000000BF9DF8090020F00F008DF809009DF83A
:10171000090020F0F0008DF8090000BF9DF80A00D4
:1017200020F00600801C8DF80A009DF80A0020F0C9
:1017300008008DF80A009DF80A0020F010008DF8CE
:101740000A009DF80A0020F001008DF80A006846A2
:10175000A96800F023FF0746142104A8FDF7D9FD6E
:1017600003A8049002A80590ADF818700020ADF809
:101770001A00BDF81800ADF81C00CDF820D0E088A4
:1017800004F10E0204A9A3DF06461EB13046A4E709
:101790000020E0810020A0E72DE9F04192B08046D2
:1017A0000D461F2011901090B8F1000F17D0404641
:1017B000FFF7C9F9044600BF1CB1204612B0BDE8CE
:1017C000F08100BF11AA08A94046FFF7CDF80446F2
:1017D00000BF0CB12046F1E700BF08AE02E00026D2
:1017E00000201190ADB1284609F074FF044600BFF7
:1017F0000CB12046E2E700BF10AA69462846FFF771
:10180000B3F8044600BF0CB12046D7E700BF6F46CF
:1018100002E0002700201090BDF84000C3B2BDF8E0
:101820004400C1B23A46304672DFC7E72DE9F047BF
:1018300004460F4615461E46DDF8208004B115B952
:101840000E20BDE8F0870120494908700020494971
:101850000870202229464848FDF742FD00204749EC
:101860000870474806604748C0F800804FF6FF7090
:1018700045490880454800210160818081713C21F3
:101880004348FDF746FD207841490870A0788870EC
:10189000E078C870607848700846D4E90412C0E95E
:1018A0000412D4E90212C0E90212D4E90612C0E916
:1018B0000612606AD8B137483549486236498160B6
:1018C000606A00883249496A0880606A80883049C5
:1018D000496A8880002005E0616A8968095C2E4AAF
:1018E0001154401C2A49496A89888142F4D8A06A67
:1018F00020B32A492A48816025498862274924481B
:10190000806A8160A06A80882149896A8880A06A8B
:1019100000881F49896A0880002005E0A16A89685B
:10192000095C1E4A1154401C1949896A8988814200
:10193000F4D894F82C00164981F82C00206A58B18C
:10194000184813490862206A4088096A4880206A5A
:1019500000880F49096A0880606810B10C49606806
:10196000486039460A48FFF717FF8146484668E74E
:10197000F8200020FB200020BCD00020FC2000200C
:101980000C210020102100200A210020FD20002031
:10199000DCD0002018D1002024D1002050D100201C
:1019A00044D100200621002010B5044620881028CC
:1019B00004D0112806D01B280CD107E0204605F0E2
:1019C000C5FD08E0204605F0E3FE04E0204606F0F1
:1019D00013F800E000BF00BF10BD000070B5054661
:1019E000022D02D0032D15D100E000BF0B48007876
:1019F00078B10020094908700948007800F014F80F
:101A0000044634B10748006818B120460549096802
:101A1000884700E000BF00BF70BD0000F920002033
:101A2000FB200020102100207FB505464E4800789D
:101A300010B9082004B070BD4C48057002F02CFCB1
:101A400020B101204A4908700020F3E749480021ED
:101A50000160818081714848407818B1434800781E
:101A600001280DD04448807818B1404800780128FA
:101A700006D04148807888B13C48007802280DD1D2
:101A80003E48006838B101203D49087008203B49B4
:101A90000968884702E00020394908702846FFF7A6
:101AA00019F83249087035480068C0B10846007816
:101AB000032803D008460078042810D12E48007867
:101AC00068B13048007850B900202F4908700120D3
:101AD0002E490870072029490968884702E000203C
:101AE0002A490870002000900190029003908DF820
:101AF00000008DF808001D48007805281CD2DFE89A
:101B000000F01703080D1200684609F005FA0446B4
:101B100013E0684609F010FA04460EE0684609F042
:101B200021FA044609E0684609F04CFA044604E04C
:101B300000201749087000E000BF00BF0B48007884
:101B400038B114480178684673DF04460CB120466A
:101B500070E70A48006820B10D4800780749096815
:101B60008847002066E70000F8200020FB200020C6
:101B7000F9200020FD200020BCD000200C210020F6
:101B8000042100201421002016210020152100200E
:101B9000FA200020FC20002033B587B0044614B999
:101BA0000E2009B030BD0025207C9DF82010884211
:101BB00036D00020059006900120ADF814000020DA
:101BC000ADF8160008A80690E188608A05AAA4DF8F
:101BD00005461DB99DF82000207401E02846E0E785
:101BE000608A4FF6FF71884219D0207DB8B100207D
:101BF0000190029003900490E088ADF80400012069
:101C00008DF80600BDF81600ADF8080005A8039091
:101C100006980490608A01A9A6DF054600E0082521
:101C20002846BEE7F8B504460D4604B10DB90E20AE
:101C3000F8BD286820604FF6FF7060822879207513
:101C4000FF20207400BF01208DF8020041F60F0034
:101C5000ADF8000000BF221D69460120A0DF064646
:101C60000EB13046E4E729462046FFF7ABFCDFE73C
:101C700070B505460C4605B104B970BD2088102822
:101C800004D0112807D050280FD109E0214628465A
:101C900005F039FC0AE02146284605F04BFD05E039
:101CA0002146284605F0D1FE00E000BF00BF00BF7E
:101CB000E3E7000070B5054629460A48FFF76CFFC8
:101CC000044674B1082C0CD0132C0AD043F2014006
:101CD000844206D000BF04A227212046FEF7FCFF65
:101CE00000BF70BDC02100202E2E5C736F75726323
:101CF000655C4170706C69636174696F6E5C626190
:101D000074746572795F6D616E6167656D656E741F
:101D10002E63000070B505461C2229461248FDF7C7
:101D2000DFFA002011490870286850B1104829686E
:101D30000A680260496841607ADF04463CB1204687
:101D400070BD0B487BDF04460CB12046F8E74FF628
:101D5000FF7008490880002007490870074A0021E1
:101D60000748FFF7FDF8EBE770D100202C21002099
:101D700018210020222100202021002045BD020042
:101D8000E8D6020010B504462088102806D0112895
:101D900008D012280ED0502810D107E0204605F0B8
:101DA000B9FB0CE0204605F0D3FC08E0204605F026
:101DB000B7FE04E0204605F097FB00E000BF00BF3F
:101DC00010BD000010B504460348011D426C2046BA
:101DD00008F09CFC10BD0000ACD1002010B50446FA
:101DE00003482246016D001D08F079FC10BD00007B
:101DF000ACD1002010B5044603482246416D001DB9
:101E000008F06DFC10BD0000ACD1002070B5044698
:101E10002088102804D011281FD01A2842D120E091
:101E200008F084FAA08808F0FBF830B900BF1EA2C1
:101E3000E0210420FEF750FF0EE0E07B022801D1F4
:101E4000012000E000200546A2882B462149A1F18F
:101E5000480008F07CFC00BF24E0A08808F088FA65
:101E600020E0207A0121B1EB101F01DA012000E00F
:101E700000200346A2881749091DA1F14C0008F073
:101E800066FC207A0221B1EB101F01DA012000E08C
:101E900000200346A2880F490831A1F1500008F044
:101EA00056FC00BF00BF70BD2E2E5C736F75726351
:101EB000655C53444B5C626C655C636F6D6D6F6E0B
:101EC0005C626C655F636F6E6E5F73746174652EC8
:101ED00063000000F8D1002070B5044600250B48CF
:101EE0002246416C001D08F0FAFB60B1074822460B
:101EF000C16C001D08F0F3FB06460EB1022000E0A5
:101F00000120054600BF284670BD0000ACD100206E
:101F100010B500240AE0204609F066FF20B92046EB
:101F200009F058FF204610BD601CC4B2182CF2DB2B
:101F30001820F8E710B50446204609F055FF18B1FF
:101F4000024850F8240010BD0020FCE704D2002015
:101F500070B505460C46204609F046FF38B10548E5
:101F600050F824102A46543808F0B9FB70BD002000
:101F7000FCE7000004D2002070B505460C4616466A
:101F8000204609F031FF38B1044800EB84013346A4
:101F90002A46543808F0DBFB70BD000004D2002054
:101FA00030B5024613880B701C0A4C700224204680
:101FB00095780446401C0D55D5780446401C0D55B7
:101FC00015790446401C0D5555790446401C0D55A5
:101FD00095790446401C0D5530BD2DE9FC41054660
:101FE0000C46174620880930B84202D90C20BDE8BB
:101FF000FC8168466DDF064600BF0EB13046F6E74D
:1020000000BF0820218868542088401C20801B20A5
:10201000218868542088401C208020882844DDF8CE
:1020200001100160BDF8051081802088801D20808E
:102030009DF80000400818B900202188685402E08B
:102040000120218868542088401C20800020CEE791
:1020500070B505460C46207858B1012805D00228F5
:102060000BD109A0FDF75AFF0BE011A0FDF756FFB9
:1020700007E019A0FDF752FF03E023A0FDF74EFF94
:1020800000BF00BF70BD0000496E64696361746980
:102090006F6E20666F7220424C455F444655206942
:1020A000732064697361626C65642E0D0A00000020
:1020B000496E6469636174696F6E20666F72204255
:1020C0004C455F44465520697320656E61626C65BE
:1020D000642E0D0A0000000044657669636520697E
:1020E000732072657175657374656420746F206503
:1020F0006E74657220626F6F746C6F6164657220BC
:102100006D6F6465210D0A00556E6B6E6F776E20E2
:102110006576656E742066726F6D20626C655F64B3
:1021200066752E0D0A00000070B586B004460E4696
:102130001F4B0FCB01AD0FC500BF14B90E2006B069
:1021400070BD00BF00BF0EB90E20F8E700BF4FF60C
:10215000FF70A0803068206100202075A07300BF50
:1021600001208DF816004FF65960ADF8140000BF3D
:10217000A21C05A90120A0DF054600BF0DB128461D
:10218000DDE700BF214601A862DF054600BF0DB1B3
:102190002846D4E700BF3146204600F055FB0546EF
:1021A00000BF0DB12846CAE700BF0020C7E7000006
:1021B00014D6020070B505460C4600BF05B970BDC7
:1021C00000BF00BF04B9FAE700BF2088502819D02B
:1021D00004DC102807D011281ED109E051280CD0AA
:1021E000532819D113E02146284605F08FF914E051
:1021F0002146284605F0A2FA0FE02146284605F0C0
:10220000DBFB0AE02146284605F040FC05E02146BC
:10221000284605F071FB00E000BF00BF00BFCEE71D
:102220007FB5044600BF01208DF80E0041F60A007C
:10223000ADF80C0000BF564A03A90120A0DF0546F7
:1022400015B1284604B070BD208800280DDD514826
:102250000090228804F13C0342F62920616800F0D6
:10226000B5FB05460DB12846ECE7208900280DDDB9
:1022700049480090228904F13C0342F62420E16899
:1022800000F0A4FB05460DB12846DBE7208A0028B4
:102290000DDD42480090228A04F13C0342F62520DD
:1022A000616900F093FB05460DB12846CAE7208B13
:1022B00000280DDD3A480090228B04F13C0342F6E1
:1022C0002720E16900F082FB05460DB12846B9E7F9
:1022D000208C00280DDD33480090228C04F13C0353
:1022E00042F62620616A00F071FB05460DB12846D2
:1022F000A8E7208D00280DDD2B480090228D04F1E9
:102300003C0342F62820E16A00F060FB05460DB16F
:10231000284697E7206B90B101A8216B09F004FAD9
:10232000224804F13C03082201A9009042F6232030
:1023300000F04CFB05460DB1284683E700BF606BFB
:1023400070B11B480090606B027904F13C03016896
:1023500042F62A2000F03AFB05460DB1284671E707
:10236000A06B90B101A8A16B07F0BEF8114804F171
:102370003C03072201A9009042F6502000F026FB02
:1023800005460DB128465DE700BF00205AE7000072
:10239000F81F0020FA1F0020022000200A20002041
:1023A000122000201A200020222000202A200020B5
:1023B000322000203A20002010B504462046FFF7C6
:1023C00025FD204606F07CFE2046FFF7DBFC20467C
:1023D00004F056FF2046FFF7E7FA2146074803F0CE
:1023E0005FFF2146064800F071F821460548FFF7D7
:1023F0003FFC21460448FFF7DDFE10BD10220020FF
:10240000A4210020C0210020D8210020F8B50446D6
:102410000E46306820604FF6FF70E082B07A20767A
:1024200000BF01208DF8020041F60900ADF8000060
:1024300000BF221D69460120A0DF05460DB12846D8
:10244000F8BD3146204602F0E7FC05460DB12846AE
:10245000F6E7707A38B13146204602F0A2FD054613
:102460000DB12846ECE70020EAE7F0B58BB0044652
:102470000F46E08A4FF6FF71884223D006AA3946FC
:10248000204602F049FD0646059600200190029084
:1024900003900490E088ADF8040002208DF8060057
:1024A0000020ADF8080005A8039006A80490E08A73
:1024B00001A9A6DF054625B9BDF81400B04200D039
:1024C0000C2500E0082528460BB0F0BD70B5054688
:1024D0000C462088102806D0112809D050280CD08E
:1024E000532814D10EE02146284605F009F80FE0E4
:1024F0002146284605F01AF90AE02146284605F04B
:1025000097FA05E02146284605F0E6F900E000BF0D
:1025100000BF70BD08B50020009069460F480068F4
:102520000AF02FFD0098B0B100BF4FF080500C4969
:10253000086040BF00BF00BF00BFBFF34F8F00BFA8
:1025400000BF00BF00BF00BF00BFBFF36F8F00BF61
:1025500000BF00BF00BF002008BD0000C01F00205A
:1025600004ED00E070B504460D462846FCF7E8FE91
:102570002080656070BD70B50446204609F099FB67
:102580000546C5F3400070BD70B50446204609F00D
:1025900090FB054605F0010070BD00002DE9F041FB
:1025A00005460E46002432782146641C6A5472782F
:1025B0002146641C6A5400BF022C01D1012000E0B6
:1025C0000020074637B900BF04A247210020FEF7CC
:1025D00083FB00BF00BF2046BDE8F0812E2E5C7358
:1025E0006F757263655C53444B5C626C655C636FD2
:1025F0006D6D6F6E5C626C655F7372765F636F6D3D
:102600006D6F6E2E6300000070B586B044480068A0
:10261000059000BF434B5022434905A808F0F6FF40
:10262000054600BF2E4636B100BF40A29821304675
:10263000FEF752FB00BF00BF00BF0020049004A8BB
:1026400008F044FF044600BF254635B100BF37A25D
:102650009D212846FEF740FB00BF00BF00200190EF
:10266000029003908DF8040001A90120049A69DF0B
:10267000044600BF254635B100BF2CA2A62128463E
:10268000FEF72AFB00BF00BF0020019002900390DC
:1026900001208DF8040000208DF805008DF806005B
:1026A00001A94020049A69DF044600BF254635B1E0
:1026B00000BF1EA2AE212846FEF70EFB00BF00BFE2
:1026C00004A808F019FF044600BF254635B100BF35
:1026D00016A2B2212846FEF7FFFA00BF00BF1E482F
:1026E00008F0FEFE044600BF254635B100BF0FA22C
:1026F000B6212846FEF7F0FA00BF00BF174808F0E1
:10270000DDFF044600BF254635B100BF07A2BA2150
:102710002846FEF7E1FA00BF00BF06B070BD00001A
:10272000C0D50200152502002C2200202E2E5C733D
:102730006F757263655C4170706C69636174696F19
:102740006E5C626C655F746F705F696D706C656DF7
:10275000656E742E63000000B923020015B70200F5
:10276000FFF752FF01F000FF01F06CFFFEF7F4F9F4
:1027700008F086FA00F0FAFE06F08CF9FEF73EFA51
:102780000BE000BF00235A1E1946044800680AF0F7
:10279000F3F90028F6D002F09FFEF2E7C01F0020F8
:1027A00010B54FF0FF3100203BDF044600BF0CB1F5
:1027B000204610BD00BFB12100203ADF044600BF13
:1027C0000CB12046F5E700BF11DF044600BF0CB195
:1027D0002046EEE700BF4FF01021486913DF0446A2
:1027E00000BF0CB12046E4E700BF16200121814064
:1027F000124A430942F8231000BF02F027FF00BF2E
:1028000000BF00BF00BF00BFBFF34F8F00BF00BFBE
:1028100000BF0B48006800F4E0600A490843001D4F
:102820000749086000BF00BF00BFBFF34F8F00BF64
:1028300000BF00BF00BF00BFFDE7000080E200E076
:102840000CED00E00000FA0530B58FB004460D46EF
:102850001C2108A8FCF75DFD00200790142102A8A8
:10286000FCF757FD0020019000BF9DF81C0020F0F0
:102870000F00401C8DF81C009DF81C0020F0F0009B
:1028800010308DF81C0000BF00BF9DF81D0020F027
:102890000F00401C8DF81D009DF81D0020F0F00079
:1028A00010308DF81D0000BF9DF81E0020F00600BE
:1028B000801C8DF81E009DF8200020F020002030A4
:1028C0008DF820009DF8200020F0080008308DF8D9
:1028D0002000002009900B900C9007A80D9000207C
:1028E0000E9020788DF802000320ADF8000000BFA4
:1028F0009DF8040020F00F00401C8DF804009DF8A6
:10290000040020F0F00010308DF8040000BF00BF7C
:102910009DF8050020F00F00401C8DF805009DF883
:10292000050020F0F00010308DF8050000BF9DF884
:10293000060020F00600801C8DF806009DF80600B9
:1029400020F008008DF806009DF8060020F0100029
:1029500010308DF806009DF8060020F00100401CA4
:102960008DF80600CDF808D001A803900020ADF83E
:102970001000ADF812001720ADF8140000200690EA
:102980006088A31D02AA08A9A2DF0FB030BD0146CE
:102990008879012809D10879012806D1488842F6AA
:1029A0000212904201D1012070470020FCE7000094
:1029B0000146024850F821007047000078C6002008
:1029C0000146014840567047A8C600202DE9F04353
:1029D0008FB007460D4614461E46DDF8588000BFEE
:1029E0000DB1012000E000208146B9F1000F06D1B1
:1029F00000BF35A287210020FEF76EF900BF00BF9F
:102A000000BF002C01DD012000E000208146B9F16B
:102A1000000F06D100BF2CA288210020FEF75CF930
:102A200000BF00BF1C2107A8FCF773FC9DF81C0029
:102A300020F00200801C8DF81C00002008900A90F5
:102A40000B900C900D9000BF01208DF83A00ADF86E
:102A5000387000BF0020019030788DF80400707845
:102A60008DF805009DF8060020F00600801C8DF80A
:102A700006009DF8060020F008008DF806009DF87D
:102A8000060020F010008DF806009DF8060020F0EA
:102A900001008DF80600142102A8FCF73AFC0EA8EC
:102AA000029001A80390ADF810400020ADF812008C
:102AB000ADF814400695434602AA07A90F480088BE
:102AC000A2DF0FB0BDE8F0832E2E5C736F757263CA
:102AD000655C53444B5C626C655C626C655F7365FE
:102AE0007276696365735C626C655F6469735C626E
:102AF0006C655F6469732E6300000000F81F00209E
:102B0000014639B10448884204D80448884201D9B2
:102B1000012070470020FCE794210020A421002020
:102B200070B505460E46002407E055F8340002F063
:102B30000DFE08B9002070BD641CB442F5D301201D
:102B4000F9E700000A49496C81B10949096C084A52
:102B500002EBC1010160114691F84010491C01F0DF
:102B6000070111641146496C491E51647047000009
:102B700094CF0020064902688A4203D001680831D8
:102B80000160704702493839016000BFF9E7000071
:102B9000CCCF00200178022902D0017803290BD183
:102BA00006490A6C817D1144044A116411464A6C3D
:102BB000817D511A014A51647047000094CF002072
:102BC0002DE9F04104460D464FF6FF76304684422B
:102BD0000AD14FF48071284606F02CFA0646B6F565
:102BE000807F0FD126460DE0FF2C0BDC21462846C6
:102BF00006F010FA07460FB1204601E04FF6FF70CD
:102C0000064600BF3046BDE8F08100002DE9F047E0
:102C100004462069406CF8B9002512E005F0070071
:102C200020B956A20321204603F088FC05EB45019C
:102C3000A06850F8213052A20321204603F07EFC08
:102C40006D1CE068A842E9D84FA202212046236803
:102C500003F074FCBDE8F08700260027002510E093
:102C600005EB450CA36853F82C00236903F14801D8
:102C70005A6CFCF790FB00B102E0761C2F4600BFB7
:102C80006D1CE068A842EBD806B9E3E7012E34D109
:102C90002069D0F8449007EB4703A26852F823203C
:102CA00002EB09012269483223695B6CD018FCF7FA
:102CB00069FB07EB4702A16851F82200FCF740FBD3
:102CC000216948642021206948302269526C81546E
:102CD0002069406C401C216948640021206948300B
:102CE0002269526C81542069483000EB090328A204
:102CF0000721204603F022FCACE74FF00008002536
:102D000022E005EB450CA36853F82C00236903F17E
:102D100048015A6CFCF73FFB00B114E008F00700D3
:102D200020B916A20321204603F008FC05EB45015B
:102D3000A06850F8213012A20321204603F0FEFBC8
:102D400008F1010800BF6D1CE068A842D9D80EA2A6
:102D500002212046236803F0F1FB0021206948305E
:102D60002269526C8154206900F1480308A20721AE
:102D7000204603F0E3FB00BF6CE700000D0A0000F3
:102D800020202573000000000D0A257300000000BC
:102D900025730000014609B1481E70470720FCE773
:102DA0002DE9F843044688462069D0F80051B8F16F
:102DB000000F3BD12069D0F8FC00A84201D1BDE84A
:102DC000F883284600F09AF805462069D0F8FC0000
:102DD000A8422AD1206990F8F80030B3216901F1A6
:102DE0004800FCF7ADFA8146216901F14800202234
:102DF0004946FCF787FA00212069483000F809109D
:102E000020694830009039A202212046236803F04F
:102E100095FB0020216981F8F8002069C0F8005175
:102E20000221204600F006F9C9E70DE02069D0F83C
:102E3000FC00A84204D1206990F8F80000B1BEE778
:102E40002846FFF7A7FF05460120216981F8F80011
:102E5000216901F5827105EB450201EB0210FCF7D7
:102E60006FFA064606B9AAE7216901F14800FCF7A6
:102E700067FA0746B74218D91EA2022120462368E6
:102E800003F05CFB216901F1480020223946FCF780
:102E900039FA002120694830C155206900F1480302
:102EA00015A20721204603F049FB2069C0F8005114
:102EB00020694664226902F5827205EB450302EB44
:102EC0000311226902F14800FCF75CFA09A2022111
:102ED0002046236803F032FB206900F1480306A274
:102EE0000721204603F02AFB00BF68E70D25732564
:102EF000730D00000D25730025730000014607299E
:102F000001D2481C70470020FCE770B50446002041
:102F1000216981F8F800236903F582732669D6F8E0
:102F2000FC6006EB460603EB0610236903F148013B
:102F30005A6CFCF7F9F92069456C0021206900F50D
:102F400082702269D2F8FC2002EB420200EB0210F0
:102F500041552169D1F8FC00FFF7D0FF2169C1F884
:102F6000FC002069D0F8FC002169C1F8000170BDA7
:102F700070B50E24084803F096FB044600BF2546B2
:102F800035B100BF05A22D212846FDF7A5FE00BFE3
:102F900000BF204670BD000000D602002E2E5C73DC
:102FA0006F757263655C4253505C6273705F636CF3
:102FB000692E630010B5024803F0E0FB10BD00006D
:102FC00000D6020013B504460023012201A92046C1
:102FD00000F020FA1CBD2DE9F04104460D461646CE
:102FE0001F4660683A463146C3682846984780467F
:102FF000BDE8F08170B5084803F0D9FB044600BF76
:10300000254635B100BF05A23B212846FDF764FEE9
:1030100000BF00BF204670BD00D602002E2E5C739C
:103020006F757263655C4253505C6273705F636C72
:10303000692E630070B504460D462069057020694D
:103040000078022809D100202169486404A20221E5
:103050002046236803F072FA00E000BF00BF70BD95
:10306000257300001CB50446002001900090AFE0DD
:1030700001AB012269462046FFF7ADFF019800B978
:103080001CBD2069807B50B10020216988739DF8A8
:1030900000005B2803D101202169C873F0E7206993
:1030A000C07BB0B100202169C8739DF800004128A1
:1030B00002D042280AD104E001212046FFF770FE29
:1030C00005E000212046FFF76BFE00E000BF00BFD7
:1030D000D6E79DF800000A2816D005DC78B108284C
:1030E00031D0092846D10BE00D280ED01B2802D084
:1030F0007F283FD128E001202169887367E066E0DE
:103100002046FFF783FD62E061E02069406C50B922
:1031100030A202212046236803F010FA0221204643
:10312000FFF788FF53E00021206948302269526C84
:1031300081542069406C401C216948640321204669
:10314000FFF778FF43E000BF2069406C00B93EE024
:1031500008212046FFF736FF20212046FFF732FFE7
:1031600008212046FFF72EFF2069406C401E216990
:1031700048642CE0FCF7B0F800689DF80010405C53
:1031800000F03E0000B922E09DF8001020694830B0
:103190002269526C81542069406C401C216948644A
:1031A0002069406C30280CD10020216948640AA2B3
:1031B0000121204603F0C2F902212046FFF73AFF21
:1031C0005EE79DF800102046FFF7FCFE00BF00BF41
:1031D0004EE700000D0A00000D0A20696E7075743C
:1031E00020627566666572206F766572666C6F77B1
:1031F000204E52465F434C495F434D445F42554623
:10320000465F53495A4500002DE9F04104462069C4
:1032100000F14805206948302169496C471820466B
:10322000FFF773FE216901F114003021FCF771F8FA
:10323000012021690861206945614FF000082EE0F6
:103240002878202802D02878092805D10020287065
:103250004FF001086D1C22E0B8F1000F1DD0287856
:10326000D8B1206900690C280AD329A2012120467F
:1032700003F064F902212046FFF7DCFEBDE8F0818F
:103280004FF00008206914302169096940F8215085
:1032900020690069401C216908616D1C00BFBD42A6
:1032A000CED3002624E006EB4603A26852F8231092
:1032B00022695069FCF74BF800B118E006EB4601B3
:1032C000A06800EB8100216948601DA2072120460B
:1032D00003F034F9206900F1140201694068836841
:1032E0002046984702212046FFF7A4FEC6E7761C39
:1032F000E068B042D7D813A318A20121204603F0FA
:103300001DF902212046FFF795FE00BFB6E7000039
:103310000D0A20746F6F206D616E7920706172618B
:103320006D6574657273203E3D204E52465F434C7E
:10333000495F415247435F4D41580D0A000000006C
:103340000D0A00000D0A636F6D6D616E64206E6F73
:103350007420666F756E640D0A000000257300000E
:1033600010B58AB018220D4904A8FBF7B9FF00BFB9
:103370000B4800904FF4806001900A4802904FF48F
:10338000806003900723084A694604A8FDF71EFFE2
:10339000044600BF20460AB010BD00009CD60200C3
:1033A000F0C60020F0CA002031B902002DE9F0413A
:1033B00006460F461446B046002505E008F1010810
:1033C0006D1CBD4200D104E04046FDF7BBFE002865
:1033D000F4D000BF04B125600020BDE8F0810020DA
:1033E00070472DE9F04106460F4614460025B046C9
:1033F00000BF00BF98F80000FDF75CFF0028F9D17E
:1034000008F101086D1CBD42F3D304B12560002012
:10341000BDE8F0812DE9F04104460D4616461F46F1
:1034200060683A4631468368284698478046BDE83A
:10343000F081000070B505460DB9094C01E0084C5B
:10344000083409E0204602F089F9064606B904E08E
:1034500028467168884700BFF4E700BF70BD0000D0
:103460006CC6002001460888062808DB0888B0F5ED
:10347000486F06DD08884FF6FF72904201D00720A2
:1034800070474888062808DB4888B0F5486F06DD95
:1034900048884FF6FF72904201D00720F0E7088875
:1034A0004FF6FF72904208D04888904205D00888B5
:1034B0004A88904201DD0720E2E70020E0E72DE99D
:1034C000F04106460D46144698462088801D40452A
:1034D00002D90C20BDE8F0813046FFF7C3FF074654
:1034E00000BF0FB13846F5E700BF052021886854BA
:1034F0002088401C20801220218868542088401C8D
:10350000208022885119308808F0DFFB2188084488
:10351000208022885119708808F0D7FB2188084440
:1035200020800020D6E7000010B5044600BF04A2AA
:1035300040F242212046FDF7CFFB00BF10BD000046
:103540002E2E5C736F757263655C4170706C69637D
:103550006174696F6E5C626C655F746F705F696DDA
:10356000706C656D656E742E6300000030B587B0B9
:103570001C216846FBF7CDFE0020009041F2883008
:10358000019047F23050029003208DF80C004FF666
:10359000FF70ADF80E0000208DF810000A4805906D
:1035A0000A4806906846FEF7B5FB044600BF25466C
:1035B0003DB100BF06A24FF409712846FDF78CFB10
:1035C00000BF00BF07B030BD8D7402002935020076
:1035D0002E2E5C736F757263655C4170706C6963ED
:1035E0006174696F6E5C626C655F746F705F696D4A
:1035F000706C656D656E742E6300000038B51B48F5
:1036000002F086F820BB1A48007848B11948406992
:10361000E8B100200090174841696846884716E0E5
:103620001548007810B91348456801E011488568CD
:103630000022294611480068FDF7C8FC044634B151
:103640000C48806918B10B4881692046884709E019
:103650000848406930B10120009006484169684639
:10366000884700BF00200249087038BD242100208F
:103670002C21002070D1002020210020E8D602005B
:103680003EB504462088FEF7A9FBD0B1208810493A
:103690000978FEF75DFC28B9208800220D490978D9
:1036A000FEF76AFC2088ADF8020005208DF80000C6
:1036B0002088FEF79FFB8DF80400684600F0AEFA04
:1036C00005E02088012241F2060100F0A1F83EBD8C
:1036D0007721002076210020002101700121417016
:1036E0008170FE210171FDEEC00AC0ED020A017376
:1036F000F2EE020A60EE200AB1EE041AC0EE811A60
:10370000DFED070A71EEA00AFDEEE00AC0ED040A43
:1037100004490A6842614968816102210177704762
:1037200000004845E41F002070B505460E24FDF753
:10373000A5FB0248006808F0EFFD70BDD01F002017
:103740007CB504460D46002000900190A81D00EBBA
:10375000C4008079ADF80000A81D00EBC40080799A
:10376000ADF802000022694620468FDF06462EB1E2
:10377000334622460249012003F0C8FC7CBD00000C
:10378000B0DA020070B506460D460EB1012070BDDC
:10379000287920B1012809D0022813D10FE028464A
:1037A00006F0A6FC0446022028710DE0284600F031
:1037B000AFFC04460A2C01D141F61D5404E041F649
:1037C0001D5401E00F2400BF00BF2046DFE770B5A5
:1037D000044620793D2802D141F23D0001E04FF43A
:1037E0008850054620880022294602F041F970BD24
:1037F00001200549096809B1002003E0034909686F
:1038000001B100207047000000C600207820002091
:10381000FEB504460D461646094A07CA8DE807005C
:10382000ADF80240ADF804508DF80660002205485E
:1038300001782046FEF7A0FB684600F0EFF9FEBDD8
:1038400074D702007621002038B50446206930B1D3
:1038500000200090694620462269904700BF012061
:10386000207538BD10B50446A08928DF10BD0000C2
:1038700013480078062820D11148001D007800F078
:103880000F00D0B90E480830007800F0F000302862
:1038900001D1012070470A480830007800F0F0009C
:1038A000402801D10120F5E705480830007800F0F4
:1038B000F000502801D10120ECE70020EAE70000E9
:1038C000E00F00F013480078062820D11148001DB1
:1038D000007800F00F00D0B90E480830007800F0F2
:1038E000F000302801D1012070470A4808300078E4
:1038F00000F0F000402801D10120F5E7054808302C
:10390000007800F0F000502801D10120ECE7002001
:10391000EAE70000E00F00F00A48007806280ED120
:103920000848001D007800F00F0040B90548083035
:10393000007800F0F000302801D10120704700200D
:10394000FCE70000E00F00F013480078062820D1C3
:103950001148001D007800F00F00D0B90E48083063
:10396000007800F0F000302801D1012070470A48AB
:103970000830007800F0F000402801D10120F5E780
:1039800005480830007800F0F000502801D10120EF
:10399000ECE70020EAE70000E00F00F00A480078BA
:1039A00006280ED10848001D007800F00F0040B92D
:1039B00005480830007800F0F000302801D10120DF
:1039C00070470020FCE70000E00F00F0134800788B
:1039D000062820D11148001D007800F00F00D0B952
:1039E0000E480830007800F0F000302801D10120A6
:1039F00070470A480830007800F0F000402801D1F4
:103A00000120F5E705480830007800F0F000502864
:103A100001D10120ECE70020EAE70000E00F00F010
:103A20000A48007806280ED10848001D007800F0EA
:103A30000F0040B905480830007800F0F000302849
:103A400001D1012070470020FCE70000E00F00F0EA
:103A50000A48007806280ED10848001D007800F0BA
:103A60000F0040B905480830007800F0F000302819
:103A700001D1012070470020FCE70000E00F00F0BA
:103A80000A48007806280ED10848001D007800F08A
:103A90000F0040B905480830007800F0F0005028C9
:103AA00001D1012070470020FCE70000E00F00F08A
:103AB0000278072A34D2DFE802F033040710202905
:103AC000300000220A702CE001220A7003898B81E9
:103AD0008388CB81C2688A6023E002220A7003894E
:103AE0008B818388CB81C2688A60027C062A01D1DF
:103AF000012300E000230B7413E003220A70C38843
:103B00008B810389CB81C2688A600AE004220A7033
:103B1000C3888B810023CB8103E005220A7000E07B
:103B200000BF00BF7047000070B50546002409E0E3
:103B3000064850F8240020B1044850F824102846C4
:103B40008847641C082CF3D370BD0000FCCE002015
:103B50003EB505460C46DCB1112C19D00020009072
:103B600001900290ADF8025001940D2C03D10B206E
:103B70008DF8000008E0862C03D10A208DF80000A3
:103B800002E009208DF80000684600F057F800BFF9
:103B90003EBD000070B50546002405E0044850F81D
:103BA000241028468847641C002CF7D070BD000004
:103BB0003021002070B50546002405E0044850F887
:103BC000241028468847641C002CF7D070BD0000E4
:103BD0003C21002070B50546002405E0044850F85B
:103BE000241028468847641C022CF7D370BD0000BF
:103BF0001CD7020070B50546002405E0054850F8C2
:103C0000241028468847641C034800788442F5DB6A
:103C100070BD0000D4D600207221002070B505468A
:103C2000002405E0044850F8241028468847641C06
:103C3000022CF7D370BD00003CD7020070B50546DA
:103C4000002405E0044850F8241028468847641CE6
:103C5000002CF7D070BD000080D702001FB50446CD
:103C6000606808B9012000E0002003902078062851
:103C70007BD2DFE800F0820304304F7B00BFA089D5
:103C800000F065FA18B9E08906F043FB10B3A0898B
:103C900000F058FAADF80200E08906F037FB8DF825
:103CA00004002078012807D1606808B9002000E0EE
:103CB00003208DF8000006E0606808B9012000E0EC
:103CC00004208DF8000060680390A06802906846A8
:103CD00004F02CFC52E0A08900F039FA18B9E08910
:103CE00006F017FBA8B1A08900F02CFAADF802008D
:103CF000E08906F00BFB8DF80400606808B902202B
:103D000000E005208DF80000A0680290684604F0ED
:103D10000DFC33E0A08900F01AFA28B3E08918BB43
:103D2000A08900F00FFAADF80200E08906F0EEFA83
:103D30008DF80400FF208DF80400606838B9062073
:103D40008DF80000BDF8020004F008FE02E0072034
:103D50008DF8000000200E4908700E49087004F02C
:103D600047FD684604F0E2FB08E006E008208DF815
:103D70000000684604F0DAFB00E000BF00BF044822
:103D8000007820B100200249087004F031FD1FBD09
:103D90004D2100204E21002010B588B0044602209D
:103DA00000F0FCF910B9022008B010BD4FF6FF700A
:103DB000844201D10420F7E705208DF8040001209A
:103DC0008DF80800ADF80A400022114601A803F062
:103DD000CDFE18B106F002F90020E5E70820E3E780
:103DE00000B587B0022000F0D9F910B9022007B061
:103DF00000BD06208DF8000000221146684603F041
:103E0000B5FE48B10548007810B101200349087398
:103E100006F0E4F80020EAE70820E8E7FCCF0020FD
:103E200010B58CB0142107A8FBF773FA022000F03C
:103E3000B5F928B107A8FFF777FE00200CB010BD38
:103E4000012000F0ABF908B10020F7E7012000F0F5
:103E5000B1F900F087FA01208DF8000003F092FF1D
:103E600004460C2C28D2DFE804F00614071527229C
:103E7000092327191E1A00BF0B20DFE7022000F0DC
:103E800099F9012000F070F907A8FFF74DFE002016
:103E9000D4E700BF00208DF804000EE000BF03202F
:103EA0008DF8040009E002208DF8040005E000BF51
:103EB00001208DF8040000E000BF00BF0022114681
:103EC000684603F053FE06F089F80020B6E70000CC
:103ED00038B504460CB9052038BD6946204606F0C1
:103EE00025F9E0B10F48BDF8001000EB0110808902
:103EF000002812DDA07A80B10A48BDF8001000EB5E
:103F000001108089401E0749BDF8002001EB021115
:103F100088810020A072002502E0062500E00A2525
:103F20002846D9E7DCCF00207FB514461D462B4636
:103F3000224601A9684606F097F804B070BD37B56F
:103F40000C4615462B4622466946002006F08CF8A2
:103F50003EBD37B50C4615462B4622460021684625
:103F600006F082F83EBD024602B109B9052070474D
:103F7000106808600020FAE738B504460D4604B121
:103F80000DB9052038BD6946204606F0CFF8A8B126
:103F900061680B48BDF8002000EB02108089401CCE
:103FA000074ABDF8003002EB031290812960606877
:103FB0000C3068600120A0720020E3E70A20E1E7EE
:103FC000DCCF002070B504460D460CB9052070BD4D
:103FD000032300222946204608F04EFCF7E770B57F
:103FE00004460D46022300222946204608F044FCE0
:103FF00070BD70B505460E4614460CB9052070BD5F
:10400000022322463146284608F036FCF7E7000036
:104010000146094A1278082A01D10C200AE0074A11
:10402000054B1B7842F82310034A1278521C024BAE
:104030001A70002070470000AD200020FCCE002048
:10404000F8B504460D46022000F0A8F808B9022091
:10405000F8BD0CB90520FBE76946284608F0FCFCD2
:1040600006461EB9BDF80000208065803046EFE7A7
:1040700070B50446022000F091F808B9022070BD26
:104080000CB90520FBE72088022801DD0420F6E7B3
:1040900020880A4901EB001671896088C01C081A43
:1040A00008D42188608808F0C9FC00202080608046
:1040B000002500E004252846E1E70000DCCF0020D1
:1040C00070B504460D462A460021204600F00EF841
:1040D000A068401CA06070BD01468A68C868801A4C
:1040E000704701468A68C868801A704710B58368AF
:1040F0000B44848823400468E35C137010BDC268DD
:1041000083881A4003689954C268521CC260704781
:104110003EB504460A4B6A460021A01D05F0A4FFE7
:10412000054635B9064A9188019806F06DF80546AE
:1041300003E0034800210160416028463EBD0000C5
:10414000BC2000200146A1F5404080B270470146E6
:10415000B1F5404F05DB4FF6FE70814201DC0120D6
:1041600070470020FCE70000024909788143014ABA
:1041700011707047AC20002010B504462078182834
:1041800002D1FDF7C5FE207010BD10B504462078A1
:10419000182802D1FDF7BCFE207010BD014604486E
:1041A0000078084008B1012070470020FCE70000BB
:1041B000AC200020024909780143014A1170704780
:1041C000AC20002030B504461088C01C984201D9AC
:1041D0000C2030BD0220158848551088401C1080E6
:1041E0000120158848551088401C108015884C55B2
:1041F0001088401C10800020EBE700002DE9F04102
:1042000006460C4615460027B846862C03D0112CCE
:1042100001D0002C35D1862C03D14FF000080127A6
:1042200009E0112C03D14FF00108002703E014B975
:104230004FF000080027C5B13A46134801783046D0
:10424000FDF79AFE4246114801783046FDF794FE8C
:1042500000220F4801783046FDF78EFE00220D48FF
:1042600001783046FDF788FE0BE03A4608480178B1
:104270003046FDF781FE4246064801783046FDF79C
:104280007BFEBDE8F08100008D2100208C21002004
:10429000892100208821002008B5684600F0C2F876
:1042A000009808B1012008BD0020FCE770B5044665
:1042B0000D46E0B2FCF7FEFF204670BDF8B505469E
:1042C0000C4616461F461C48007800F0010008B94D
:1042D0000120F8BD2846FEF713FC08B90220F8E7D4
:1042E0000CB90320F5E7C4F30B0008B10620F0E792
:1042F0002868A04204D804EB06306968884201D9D6
:104300000520E6E70EB90420E3E7684605F0AAFDBC
:1043100008B90720DDE70098476000980560022093
:1043200000990872C4F30F300099888100980682C2
:1043300005F060FE0020CCE7C620002070B50546E1
:104340000C46204605F0C2FD70BD4FF010204169BB
:10435000481C08B1084670474FF080504069000380
:10436000F9E700002DE9F0412B482C49401A0409D7
:104370002948401A0509FFF7E8FF06462848007853
:1043800000F0010010B10020BDE8F081002008E03D
:10439000224A02EB00110A6812B14A6802B16D1E8E
:1043A000401CA042F4D300202BE01C4A02EB001179
:1043B000002700F0FF0C002217E0DFF8608008EB18
:1043C0000213D3F80080B8F1000F05D0D3F80480B1
:1043D000B8F1000F00D007E093F80D80B84502DD7A
:1043E0005F7B02F0FF0C00BF521CA242E5D30B4AD8
:1043F00002EB0C114E600A7BA6EB02320A600E68DB
:10440000401CA842D1D30648007840F0010004497E
:1044100008700020B8E70000A421002094210020AB
:10442000C6200020014609B9032070470248406EAB
:1044300008600020F9E7000018D000202DE9F843BB
:1044400005460C4616461F46DDF820801F480078BA
:1044500000F0010010B90120BDE8F8832846FEF7FE
:104460004FFB08B90220F7E706B10CB90320F3E7C8
:1044700006F0030010B904F0030008B10620EBE7D2
:104480002868A04204D804EB87016868884201D2FA
:104490000520E1E70FB90420DEE7684605F0E2FCFD
:1044A00008B90720D8E70098C0F804800098056094
:1044B0000120009908720098C66000980461009875
:1044C000878205F097FD0020C6E70000C620002087
:1044D00070B504461748006E00EB4000154901EB2B
:1044E000C0051548007800F0020068B1022C02D027
:1044F000032C08D103E0284603F022FA03E0284603
:1045000003F008FA00BF12E00B48007800F0040046
:1045100068B10948007820F0040007490870054890
:10452000406E20B10846007840F00200087005F0A7
:104530001FFD70BD18D00020C62000200146024893
:104540000088084070470000E01F002019B9054AA4
:104550001288824302E0034A12880243014B1A8008
:1045600070470000E01F00203EB500BF9DF800002E
:1045700020F00F00401C00909DF8000020F0F0009B
:104580001030009000BF0A2220A168467CDF04465C
:1045900000BF25463DB100BF1FA24FF4E071284681
:1045A000FCF79AFB00BF00BF40F2413078DF0446C1
:1045B00000BF25463DB100BF17A240F2C3112846F7
:1045C000FCF78AFB00BF00BF0020019002904FF46F
:1045D000A070ADF804004FF40270ADF806000020A2
:1045E000ADF808004FF4C870ADF80A0001A87ADFF2
:1045F000044600BF25463DB100BF07A240F2CD11E1
:104600002846FCF769FB00BF00BF3EBD4442474A55
:104610005F54436F726500002E2E5C736F7572637A
:10462000655C4170706C69636174696F6E5C626C2B
:10463000655F746F705F696D706C656D656E742E0B
:104640006300000070B50021084801F00EFE04462A
:1046500000BF25463DB100BF05A240F2D511284656
:10466000FCF73AFB00BF00BF70BD00001022002025
:104670002E2E5C736F757263655C4170706C69633C
:104680006174696F6E5C626C655F746F705F696D99
:10469000706C656D656E742E6300000070B5054624
:1046A0000DB1012070BD1848007B18B100201649DB
:1046B000087301E000F0D4F81348007808281DD2F0
:1046C000DFE800F01C04080C101C141800F03CF883
:1046D000044615E000F0B2F8044611E000F08EF850
:1046E00004460DE000F044F8044609E000F01CF92F
:1046F000044605E000F028F9044601E00F2400BF5D
:1047000000BF2046CEE70000FCCF00200C48008907
:10471000401C0B49088100204880087300BF0CE052
:10472000084901EB0011097809B9012200E00022D3
:1047300003490A310A54411C88B20228F0DB704751
:10474000FCCF0020DCCF002010B5084800F032F884
:1047500040B900200549891E08704880486041F62C
:104760001D5010BD00F06AF8FBE70000FECF0020EE
:1047700070B50D4845880D4800EB0510808968B973
:104780000A4800EB05100023012241680848FFF7A2
:1047900095FD044604200449087002E000F08CF8FE
:1047A0000446204670BD0000FCCF0020DCCF002076
:1047B0009421002010B501460022002015E00D4B89
:1047C0001B5C83B100240B4B1C540B4B03EB0013FD
:1047D0009B8943B9084B03EB00139B7B012B02D150
:1047E0000880012203E0431C98B20228E7DB00BFE7
:1047F000104610BD06D00020DCCF0020F8B50C48D4
:1048000044680C4800680B49898800EB8105608882
:10481000C01C86B20320064908700020009008469C
:104820003346294642680448FFF708FEF8BD0000F9
:10483000FCCF0020B42000209421002010B50749AF
:104840004888091D05F0B0FC18B1FFF7D7FF0446F2
:1048500002E0FFF78DFF0446204610BDFCCF00208C
:1048600010B514480078082820D2DFE800F0041FB3
:104870001F0A1016171BFFF749FF01200D4908708A
:1048800015E000F06DF802200A4908700FE000F012
:1048900029F806200749087009E000BF07200549EC
:1048A000087004E001200349087000E000BF00BF69
:1048B00010BD0000FCCF002010B50520064908708F
:1048C0000220064988800846002301220168044826
:1048D000FFF7F4FC10BD0000FCCF0020B420002046
:1048E000942100200D4908680D4949880D4A02EBC2
:1048F00001114968094A116009494988094A02EBCE
:104900000111486005498988054A5288054B03EB27
:10491000021211810221014A91807047B4200020C7
:10492000FCCF0020DCCF002010B506200449087021
:104930004988044A02EB0111486803F001FA10BDEE
:10494000FCCF0020DCCF002010B507200349087001
:104950000020486003F004FA10BD0000FCCF0020E6
:10496000054A50684288D21C91B2044A92880A448F
:10497000024B9A8070470000FCCF0020B42000203A
:104980003EB504462088502821D0522802D0542811
:1049900025D103E0A08801F0E1F820E006208DF8A1
:1049A0000000A08800F0D8FCADF80200A088ADF8A7
:1049B0000400BDF8020000F00FF9A08800220C49A5
:1049C0000978FDF7D9FA6846FFF7E4F807E0A01D7B
:1049D000FDF7DDFF10B1A08801F010F900BF00BFA6
:1049E000FCF74EFD07F082F906F044F83EBD0000EA
:1049F000372100203EB504466088ADF802002078DB
:104A000020B101280FD002282BD116E000208DF80C
:104A100000006846FFF7BEF8608800F0C7FB054657
:104A200001F09CF81DE001208DF80000A088ADF891
:104A300004006846FFF7AEF813E0207980B1608883
:104A400000F0B4FB05464FF6FF70854207D0012207
:104A5000054801782846FDF78FFA06F00BF800BFED
:104A600000BF00BF3EBD00003721002010B5044646
:104A7000207801280DD1608801F070F8608800F07E
:104A80008FF928B16088012203490978FDF774FA8B
:104A900000E000BF00BF10BD3721002010B500F0BE
:104AA0007FFDFDF735FA12490870FDF731FA11491B
:104AB0000870FDF72DFA10490870FDF729FA0F4923
:104AC00008700B48007818280BD00A48007818287E
